:100000000C942A000C9447000C9447000C94470071
:100010000C9447000C9447000C9447000C94470044
:100020000C9447000C9447000C9447000C94470034
:100030000C9447000C9447000C9447000C94470024
:100040000C9447000C9447000C9447000C94470014
:100050000C94470011241FBECFE5D4E0DEBFCDBF16
:1000600010E0A0E6B0E0E0EAFBE202C005900D92ED
:10007000AC37B107D9F710E0ACE7B0E001C01D9292
:10008000A639B107E1F70E940D140C94CE150C941B
:100090000000EF92FF920F931F937B018C0120E0F1
:1000A00030E040E05FE40E94490388238CF0C801FF
:1000B000B70120E030E040E05FE40E94C1010E940F
:1000C000A9039B01AC01205030404040504806C07D
:1000D000C801B7010E94A9039B01AC01B901CA0183
:1000E0001F910F91FF90EF900895A0E0B0E0EBE733
:1000F000F0E00C94A914DC012B01FA019C919230E0
:1001000008F439C1EB018881823008F433C194309E
:1001100069F4843009F02FC111969C91119789815F
:10012000981709F428C1AFE6B0E025C1843009F47E
:1001300021C18230A9F4923009F01DC19A01AD01AC
:1001400088E0EA010990AE01E90109929E0181501F
:10015000C1F7E201898111969C918923818308C1AD
:10016000923009F407C112962D903C901397EB0141
:100170008A819B811496AD90BD90CD90DC901797AD
:10018000EC80FD800E811F819101281B390BB90184
:1001900037FF04C066277727621B730B6032710537
:1001A0000CF061C0121613066CF537014801062EDB
:1001B00004C096948794779467940A94D2F721E0C8
:1001C00030E040E050E004C0220F331F441F551FB1
:1001D0006A95D2F721503040404050402E213F21B7
:1001E00040235123211531054105510521F021E01E
:1001F00030E040E050E079018A01E628F72808293C
:1002000019293CC0232BD1F1260E371E350146019A
:10021000062E04C096948794779467940A94D2F734
:1002200021E030E040E050E004C0220F331F441FC3
:10023000551F6A95D2F721503040404050402A2146
:100240003B214C215D21211531054105510521F04E
:1002500021E030E040E050E059016A01A628B728CB
:10026000C828D9280BC0821593052CF01C01AA249C
:10027000BB24650103C0EE24FF24870111969C91E5
:10028000D20111968C91981709F445C0992339F041
:10029000A80197012A193B094C095D0906C0A6016E
:1002A00095012E193F09400B510B57FD08C01182D3
:1002B0003382228224833583468357831DC081E0A5
:1002C00081833382228288279927DC01821B930B4A
:1002D000A40BB50B84839583A683B7830DC0220F2F
:1002E000331F441F551F24833583468357838281E0
:1002F000938101979383828324813581468157813D
:10030000DA01C9010197A109B1098F5F9F4FAF4F72
:10031000BF4328F30BC0918333822282EA0CFB1C7B
:100320000C1D1D1DE482F5820683178383E0808304
:10033000248135814681578157FF1AC0C901AA27F8
:1003400097FDA095BA2F81709070A070B0705695EF
:10035000479537952795822B932BA42BB52B848318
:100360009583A683B7838281938101969383828349
:10037000DF0101C0D201CD01CDB7DEB7E2E10C94BF
:10038000C514A0E2B0E0E7ECF1E00C94B514698389
:100390007A838B839C832D833E834F835887E9E048
:1003A000EE2EF12CEC0EFD1ECE010196B7010E943F
:1003B000D2048E010F5E1F4FCE010596B8010E9438
:1003C000D2048A8991E089278A8BC701B801AE01DE
:1003D000475E5F4F0E9475000E94FD03A096E6E015
:1003E0000C94D114A0E2B0E0E8EFF1E00C94B51465
:1003F00069837A838B839C832D833E834F835887C5
:10040000F9E0EF2EF12CEC0EFD1ECE010196B701A6
:100410000E94D2048E010F5E1F4FCE010596B801D7
:100420000E94D204C701B801AE01475E5F4F0E942F
:1004300075000E94FD03A096E6E00C94D114A0E2A2
:10044000B0E0E5E2F2E00C94A91469837A838B832F
:100450009C832D833E834F835887CE010196BE0136
:10046000675F7F4F0E94D204CE010596BE016F5E8A
:100470007F4F0E94D2049985923088F0898982301A
:10048000C8F0943019F4823051F404C0843029F457
:10049000923081F48FE690E0C6C0923049F420E0BB
:1004A0009A858A89981321E02A87CE010996BBC0D4
:1004B000823049F420E09A858A89981321E02A8BBA
:1004C000CE014196B0C02D843E844F8458886D88FB
:1004D0007E888F88988CEE24FF248701AA24BB2471
:1004E000650140E050E060E070E0E0E0F0E0C10174
:1004F00081709070892BE9F0E60CF71C081D191D1E
:100500009A01AB012A0D3B1D4C1D5D1D80E090E062
:10051000A0E0B0E0E614F7040805190520F481E036
:1005200090E0A0E0B0E0BA01A901480F591F6A1F8E
:100530007B1FAA0CBB1CCC1CDD1C97FE08C081E0F5
:1005400090E0A0E0B0E0A82AB92ACA2ADB2A3196B6
:10055000E032F10549F0660C771C881C991C569412
:10056000479437942794C3CFFA85EA892B893C892D
:100570008B859C85280F391F2E5F3F4F17C0CA01FE
:1005800081709070892B61F016950795F794E79428
:1005900080E090E0A0E0B0E8E82AF92A0A2B1B2BC3
:1005A00076956795579547952F5F3F4F77FDE7CF36
:1005B0000CC0440F551F661F771F17FD4160EE0CDE
:1005C000FF1C001F111F21503040403090E05907A0
:1005D00090E0690790E4790760F32B8F3C8FDB0193
:1005E000CA018F779070A070B07080349105A1051A
:1005F000B10561F447FD0AC0E114F10401051105DC
:1006000029F0405C5F4F6F4F7F4F40781A8EFE1786
:1006100011F081E08A8F4D8F5E8F6F8F78A383E01A
:10062000898FCE0149960E94FD03A096E2E10C94C9
:10063000C514A8E1B0E0EFE1F3E00C94B5146983D0
:100640007A838B839C832D833E834F83588789E0F5
:10065000E82EF12CEC0EFD1ECE010196B7010E9492
:10066000D2048E010F5E1F4FCE010596B8010E9485
:10067000D2048985823040F08989823028F0C70110
:10068000B8010E944A0501C08FEF6896E6E00C941D
:10069000D114A8E1B0E0EFE4F3E00C94B514698361
:1006A0007A838B839C832D833E834F83588789E095
:1006B000E82EF12CEC0EFD1ECE010196B7010E9432
:1006C000D2048E010F5E1F4FCE010596B8010E9425
:1006D000D2048985823040F08989823028F0C701B0
:1006E000B8010E944A0501C08FEF6896E6E00C94BD
:1006F000D114A8E1B0E0EFE7F3E00C94B5146983FE
:100700007A838B839C832D833E834F83588789E034
:10071000E82EF12CEC0EFD1ECE010196B7010E94D1
:10072000D2048E010F5E1F4FCE010596B8010E94C4
:10073000D2048985823040F08989823028F0C7014F
:10074000B8010E944A0501C081E06896E6E00C9479
:10075000D114ACE0B0E0EFEAF3E00C94B914698393
:100760007A838B839C83CE010196BE016B5F7F4FA2
:100770000E94D2048D81823061F1823050F1843048
:1007800021F48E81882351F12EC02F81388537FDC9
:1007900020C06E812F3131051CF06623F9F023C093
:1007A0008EE190E0821B930B29853A854B855C8511
:1007B00004C056954795379527958A95D2F76623B5
:1007C000B1F050954095309521953F4F4F4F5F4F79
:1007D0000EC020E030E040E050E009C02FEF3FEFD6
:1007E0004FEF5FE704C020E030E040E050E8B9019F
:1007F000CA012C96E2E00C94D514DF92EF92FF929E
:100800000F931F93FC01E480F58006811781D1804E
:100810008081823048F480E090E0A0E1B0E0E82AF6
:10082000F92A0A2B1B2BA5C0843009F49FC0823003
:1008300021F4EE24FF24870105C0E114F104010531
:10084000110519F4E0E0F0E096C0628173819FEF3A
:10085000623879070CF05BC022E83FEF261B370BAC
:100860002A3131052CF020E030E040E050E02AC091
:10087000B801A701022E04C0769567955795479554
:100880000A94D2F781E090E0A0E0B0E004C0880FC5
:10089000991FAA1FBB1F2A95D2F70197A109B10979
:1008A0008E219F21A023B1230097A105B10521F03E
:1008B00081E090E0A0E0B0E09A01AB01282B392B59
:1008C0004A2B5B2BDA01C9018F779070A070B07052
:1008D00080349105A105B10539F427FF09C0205CDA
:1008E0003F4F4F4F5F4F04C0215C3F4F4F4F5F4F13
:1008F000E0E0F0E02030A0E03A07A0E04A07A0E402
:100900005A0710F0E1E0F0E079018A0127C0603871
:10091000710564F5FB01E158FF4FD801C7018F77DE
:100920009070A070B07080349105A105B10539F4C4
:10093000E7FE0DC080E490E0A0E0B0E004C08FE3EB
:1009400090E0A0E0B0E0E80EF91E0A1F1B1F17FFA1
:1009500005C016950795F794E794319687E01695AC
:100960000795F794E7948A95D1F705C0EE24FF2404
:100970008701EFEFF0E06E2F679566276795902F60
:100980009F77D794DD24D7948E2F8695492F462BB9
:10099000582F5D29B701CA011F910F91FF90EF9069
:1009A000DF900895FC01DB01408151812281622F9B
:1009B0006F7770E0221F2227221F9381892F880FD3
:1009C000822B282F30E0991F9927991F11969C930D
:1009D000119721153105A9F54115510561057105DD
:1009E00011F482E037C082E89FEF13969C938E93B8
:1009F00012979A01AB0167E0220F331F441F551F66
:100A00006A95D1F783E08C930DC0220F331F441FEA
:100A1000551F12968D919C911397019713969C9355
:100A20008E931297203080E0380780E0480780E4FA
:100A3000580758F314962D933D934D935C93179755
:100A400008952F3F310579F4411551056105710570
:100A500019F484E08C93089564FF03C081E08C93C3
:100A600012C01C9210C02F57304013963C932E9307
:100A7000129783E08C9387E0440F551F661F771F02
:100A80008A95D1F7706414964D935D936D937C9322
:100A9000179708951F93DC01FB019C91923008F495
:100AA00047C08081823008F443C0943051F41196DD
:100AB0001C91843099F58181682F70E0611B710968
:100AC0003FC0843021F0923031F48230B9F181811D
:100AD000882389F12DC011961C9111978230F1F075
:100AE00081811817D9F412962D913C911397828128
:100AF00093818217930794F028173907BCF0149656
:100B00008D919D910D90BC91A02D248135814681C0
:100B10005781281739074A075B0718F4112341F05A
:100B20000AC082179307A407B50740F4112319F0F0
:100B300061E070E005C06FEF7FEF02C060E070E041
:100B4000CB011F910895DF93CF93CDB7DEB72797E1
:100B50000FB6F894DEBF0FBECDBF1F8281E08E833B
:100B600081E08D831C821B821A821982E0E4F0E00E
:100B70008981882F90E00024969587950794969513
:100B800087950794982F802D282F20688A81882F99
:100B900090E0880F991F82959295907F9827807F8B
:100BA0009827282B8B81882F90E082959295907FB3
:100BB0009827807F9827282B8C81882F90E0880F9A
:100BC000991F880F991F880F991F282B8D81882FB7
:100BD00090E0880F991F880F991F282B8E81882FEE
:100BE00090E0880F991F822B808327960FB6F89488
:100BF000DEBF0FBECDBFCF91DF910895DF93CF93BE
:100C0000CDB7DEB7E9E2F0E087E68083E0E4F0E02C
:100C100010820E94A305EBE2F0E080818D7F80834B
:100C2000EAE2F0E0808188608083EAE2F0E080819F
:100C300080618083CF91DF910895DF93CF930F92EE
:100C4000CDB7DEB78983EBE2F0E080818072882344
:100C5000D1F3ECE2F0E089818083EBE2F0E0808187
:100C600080748823D1F30F90CF91DF910895DF93A3
:100C7000CF9300D00F92CDB7DEB78983EBE2F0E0DF
:100C80008081ECE2F0E089818083EBE2F0E080811A
:100C90000F900F900F90CF91DF910895DF93CF9336
:100CA000CDB7DEB7EBE2F0E0808180788823D1F326
:100CB000ECE2F0E08081CF91DF910895DF93CF9354
:100CC0000F92CDB7DEB7EBE2F0E08081ECE2F0E02E
:100CD00080810F90CF91DF910895DF93CF9300D063
:100CE0000F92CDB7DEB79B838A83198219820EC01B
:100CF0008981282F30E08A819B81FC01E20FF31F5C
:100D000080810E941D0689818F5F89838981282FB8
:100D100030E08A819B81FC01E20FF31F80818823F0
:100D200039F70F900F900F90CF91DF9108950F93A7
:100D30001F93DF93CF9300D00F92CDB7DEB79B8385
:100D40008A8319828981282F30E08A819B818C01D6
:100D5000020F131F0E945E06F80180830FC0898175
:100D60008F5F89838981282F30E08A819B818C0164
:100D7000020F131F0E944E06F80180838981282FDD
:100D800030E08A819B81FC01E20FF31F8081882380
:100D900031F78981282F30E08A819B81FC01E20FA5
:100DA000F31F10820F900F900F90CF91DF911F9142
:100DB0000F910895DF93CF9300D000D00F92CDB75D
:100DC000DEB789836A834B838A81893008F0E4C067
:100DD0008981853008F0E0C08981282F30E03D838B
:100DE0002C838C819D818130910509F447C02C8131
:100DF0003D81223031052CF48C819D81009771F06A
:100E0000CBC02C813D812230310509F467C08C8133
:100E10009D818330910509F491C0BEC08B818823E8
:100E2000A9F4AAE3B0E0EAE3F0E08081482F8A81E8
:100E3000282F30E081E090E0022E02C0880F991F39
:100E40000A94E2F7809584238C93A6C08B8181302D
:100E500009F0A2C0AAE3B0E0EAE3F0E08081482F05
:100E60008A81282F30E081E090E0022E02C0880FB6
:100E7000991F0A94E2F7842B8C938EC08B81882370
:100E8000A9F4A7E3B0E0E7E3F0E08081482F8A818E
:100E9000282F30E081E090E0022E02C0880F991FD9
:100EA0000A94E2F7809584238C9376C08B818130FD
:100EB00009F072C0A7E3B0E0E7E3F0E08081482FDB
:100EC0008A81282F30E081E090E0022E02C0880F56
:100ED000991F0A94E2F7842B8C935EC08B81882340
:100EE000A9F4A4E3B0E0E4E3F0E08081482F8A8134
:100EF000282F30E081E090E0022E02C0880F991F79
:100F00000A94E2F7809584238C9346C08B818130CC
:100F100009F042C0A4E3B0E0E4E3F0E08081482FB0
:100F20008A81282F30E081E090E0022E02C0880FF5
:100F3000991F0A94E2F7842B8C932EC08B8188230F
:100F4000A9F4A1E3B0E0E1E3F0E08081482F8A81D9
:100F5000282F30E081E090E0022E02C0880F991F18
:100F60000A94E2F7809584238C9316C08B8181309C
:100F700099F4A1E3B0E0E1E3F0E08081482F8A81B9
:100F8000282F30E081E090E0022E02C0880F991FE8
:100F90000A94E2F7842B8C930F900F900F900F9090
:100FA0000F90CF91DF910895DF93CF9300D000D0C1
:100FB000CDB7DEB789836A838981853008F05AC04E
:100FC0008981282F30E03C832B838B819C81813069
:100FD000910521F12B813C81223031052CF48B814C
:100FE0009C81009761F046C02B813C812230310505
:100FF00021F18B819C818330910571F13BC08A8105
:10100000882321F4EAE3F0E0108234C08A81813041
:1010100089F5EAE3F0E08FEF80832CC08A81882392
:1010200021F4E7E3F0E0108225C08A81813011F5D8
:10103000E7E3F0E08FEF80831DC08A81882321F4ED
:10104000E4E3F0E0108216C08A81813099F4E4E391
:10105000F0E08FEF80830EC08A81882321F4E1E3E2
:10106000F0E0108207C08A81813021F4E1E3F0E0F2
:101070008FEF80830F900F900F900F90CF91DF91A3
:101080000895DF93CF9300D000D00F92CDB7DEB795
:1010900089836A834B838981282F30E03D832C83A9
:1010A0008C819D818130910509F447C02C813D815F
:1010B000223031052CF48C819D81009771F0CBC0DA
:1010C0002C813D812230310509F467C08C819D81DE
:1010D0008330910509F491C0BEC08B818823A9F4A7
:1010E000ABE3B0E0EBE3F0E08081482F8A81282F6A
:1010F00030E081E090E0022E02C0880F991F0A9430
:10110000E2F7809584238C93A6C08B81813009F00F
:10111000A2C0ABE3B0E0EBE3F0E08081482F8A812E
:10112000282F30E081E090E0022E02C0880F991F46
:101130000A94E2F7842B8C938EC08B818823A9F4C8
:10114000A8E3B0E0E8E3F0E08081482F8A81282F0F
:1011500030E081E090E0022E02C0880F991F0A94CF
:10116000E2F7809584238C9376C08B81813009F0DF
:1011700072C0A8E3B0E0E8E3F0E08081482F8A8104
:10118000282F30E081E090E0022E02C0880F991FE6
:101190000A94E2F7842B8C935EC08B818823A9F498
:1011A000A5E3B0E0E5E3F0E08081482F8A81282FB5
:1011B00030E081E090E0022E02C0880F991F0A946F
:1011C000E2F7809584238C9346C08B81813009F0AF
:1011D00042C0A5E3B0E0E5E3F0E08081482F8A81DA
:1011E000282F30E081E090E0022E02C0880F991F86
:1011F0000A94E2F7842B8C932EC08B818823A9F468
:10120000A2E3B0E0E2E3F0E08081482F8A81282F5A
:1012100030E081E090E0022E02C0880F991F0A940E
:10122000E2F7809584238C9316C08B81813099F4EA
:10123000A2E3B0E0E2E3F0E08081482F8A81282F2A
:1012400030E081E090E0022E02C0880F991F0A94DE
:10125000E2F7842B8C930F900F900F900F900F90CC
:10126000CF91DF910895DF93CF9300D000D0CDB719
:10127000DEB789836A838981853090F58981282F3B
:1012800030E03C832B838B819C8181309105D1F0B0
:101290002B813C81223031052CF48B819C8100977D
:1012A00061F01EC02B813C812230310581F08B81A1
:1012B0009C818330910581F013C0EBE3F0E08A81DB
:1012C00080830EC0E8E3F0E08A81808309C0E5E313
:1012D000F0E08A81808304C0E2E3F0E08A818083C9
:1012E0000F900F900F900F90CF91DF910895DF93A3
:1012F000CF9300D000D00F92CDB7DEB78A836B8337
:1013000019828B81893008F06BC08A81853008F0A2
:1013100067C08A81282F30E03D832C834C815D811A
:101320004130510541F18C819D818230910534F429
:101330002C813D812115310561F052C04C815D81C8
:101340004230510551F18C819D8183309105B9F175
:1013500047C0E9E3F0E08081282F30E08B81882FBF
:1013600090E0A90102C0559547958A95E2F7CA0118
:101370008170898335C0E6E3F0E08081282F30E07A
:101380008B81882F90E0A90102C0559547958A95D9
:10139000E2F7CA018170898323C0E3E3F0E0808132
:1013A000282F30E08B81882F90E0A90102C055954D
:1013B00047958A95E2F7CA018170898311C0E0E3FD
:1013C000F0E08081282F30E08B81882F90E0A90108
:1013D00002C0559547958A95E2F7CA0181708983C5
:1013E00089810F900F900F900F900F90CF91DF9108
:1013F0000895DF93CF9300D000D0CDB7DEB78A83B6
:1014000019828A81853090F58A81282F30E03C83CB
:101410002B838B819C8181309105D1F02B813C8184
:10142000223031052CF48B819C81009761F01EC025
:101430002B813C812230310581F08B819C8183306E
:10144000910581F013C0E9E3F0E0808189830EC04B
:10145000E6E3F0E08081898309C0E3E3F0E0808186
:10146000898304C0E0E3F0E08081898389810F9063
:101470000F900F900F90CF91DF910895DF93CF934E
:1014800000D000D0CDB7DEB789836A838A818930E6
:1014900008F072C08981853008F06EC08981282FDC
:1014A00030E03C832B838B819C818130910549F115
:1014B0002B813C81223031052CF48B819C8100975B
:1014C00061F05AC02B813C812230310571F18B8152
:1014D0009C8183309105E9F14FC0ABE3B0E0EBE3D1
:1014E000F0E08081482F8A81282F30E081E090E071
:1014F000022E02C0880F991F0A94E2F784278C936A
:101500003BC0A8E3B0E0E8E3F0E08081482F8A81A7
:10151000282F30E081E090E0022E02C0880F991F52
:101520000A94E2F784278C9327C0A5E3B0E0E5E3B3
:10153000F0E08081482F8A81282F30E081E090E020
:10154000022E02C0880F991F0A94E2F784278C9319
:1015500013C0A2E3B0E0E2E3F0E08081482F8A818B
:10156000282F30E081E090E0022E02C0880F991F02
:101570000A94E2F784278C930F900F900F900F90AE
:10158000CF91DF9108950F931F93DF93CF9300D0F6
:10159000CDB7DEB79A8389830E944E06E981FA812E
:1015A000808389819A818C010F5F1F4F0E944E06B4
:1015B000F801808380E20E941D060F900F90CF916A
:1015C000DF911F910F910895EF92FF920F93DF9398
:1015D000CF93CDB7DEB72F970FB6F894DEBF0FBE0F
:1015E000CDBF9B878A877D876C875F874E8788E022
:1015F000FE013296DF01982F1D929A95E9F78A85B0
:101600009B850E94C30AEA85FB858081803309F0AF
:101610004EC08A859B85FC0131968081813309F01B
:1016200046C08A859B852C853D854E855F85B901A1
:101630000E94AA0C8A859B850E94C30AEA85FB85C5
:1016400080818233A1F58A859B85FC01319680815A
:10165000873369F58A859B850E94C30AEA85FB85E5
:101660008081803321F58A859B85FC0131968081BC
:101670008233E9F4CE01029668E00E943A0CCE0172
:1016800002962E853F85B9010E94FE0B89838981D0
:10169000813051F482E367E340E322E300E0EE248B
:1016A000FF240E94640B03C08BE10E94B00B898170
:1016B0002F960FB6F894DEBF0FBECDBFCF91DF914E
:1016C0000F91FF90EF900895EF92FF920F93DF93A9
:1016D000CF93CDB7DEB728970FB6F894DEBF0FBE15
:1016E000CDBF8A836B834C832D830E83F886EF8274
:1016F00080E20E941D068A818C5F0E941D068B81FC
:101700000E941D0680E20E941D068C810E941D061B
:101710008D810E941D0680E20E941D068E8181300F
:1017200099F419820EC08981282F30E08F81988525
:10173000FC01E20FF31F80810E941D0689818F5FEB
:1017400089838981843078F328960FB6F894DEBFB8
:101750000FBECDBFCF91DF910F91FF90EF90089515
:10176000DF93CF9300D00F92CDB7DEB7898380E2AD
:101770000E941D0687E30E941D0686E40E941D0646
:1017800080E20E941D068981282F30E03B832A8356
:101790008A819B818B31910531F02A813B812F31E8
:1017A0003105A1F025C082E30E941D0687E30E9457
:1017B0001D0680E20E941D0683E30E941D0685E34C
:1017C0000E941D0680E20E941D0612C083E30E9453
:1017D0001D0681E30E941D0680E20E941D0683E330
:1017E0000E941D0683E30E941D0680E20E941D06E2
:1017F0000F900F900F90CF91DF910895DF93CF93CB
:10180000CDB7DEB727970FB6F894DEBF0FBECDBFBA
:101810009C838B837E836D8381E08A8319821BC0C6
:101820008981282F30E08B819C81FC01E20FF31F1E
:1018300040818981282F30E08D819E81FC01E20F5B
:10184000F31F8081481721F01A828A818F8308C094
:1018500089818F5F89838981883010F38A818F83A2
:101860008F8127960FB6F894DEBF0FBECDBFCF9104
:10187000DF9108950F931F93DF93CF9300D000D093
:10188000CDB7DEB79B838A836C8319820FC08981B1
:10189000282F30E08A819B818C01020F131F0E9448
:1018A0004E06F801808389818F5F898399818C81BD
:1018B000981768F380E20E941D060F900F900F901A
:1018C0000F90CF91DF911F910F9108950F931F9368
:1018D000DF93CF9300D000D00F92CDB7DEB79B83BC
:1018E0008A837D836C83198228C08981282F30E008
:1018F0008A819B818C01020F131F0E94311528E001
:1019000030E0B9010E948214805DF80180838981F2
:10191000282F30E08C819D81DC01A20FB31F8981CB
:10192000282F30E08A819B81FC01E20FF31F808128
:101930008F5F8C9389818F5F898389818830A8F23A
:101940000F900F900F900F900F90CF91DF911F91FC
:101950000F910895DF93CF93CDB7DEB727970FB6DA
:10196000F894DEBF0FBECDBF9B838A837D836C83DB
:101970005F834E838C819D812E813F81B9010E94BE
:10198000660C86E30E941D0687E30E941D0680E226
:101990000E941D06EA81FB8180810E941D068A81CA
:1019A0009B81FC01319680810E941D06198218C01E
:1019B0008981882F90E081709070009719F480E2FF
:1019C0000E941D068981282F30E08C819D81FC01B9
:1019D000E20FF31F80810E941D0689818F5F89833A
:1019E0008981883028F380E20E941D0627960FB671
:1019F000F894DEBF0FBECDBFCF91DF910895DF9386
:101A0000CF9300D00F92CDB7DEB789836A834B8323
:101A100089816A814B810E94DA060F900F900F90A6
:101A2000CF91DF910895DF93CF9300D0CDB7DEB78C
:101A300089836A8389816A8141E00E9441080F900D
:101A40000F90CF91DF910895DF93CF9300D0CDB762
:101A5000DEB789836A8389816A8140E00E944108F8
:101A60000F900F90CF91DF910895DF93CF9300D027
:101A7000CDB7DEB789836A8389816A810E943E0A75
:101A80000F900F90CF91DF910895DF93CF93CDB753
:101A9000DEB7E8970FB6F894DEBF0FBECDBF81E08A
:101AA00060E041E00E94DA0681E061E041E00E94EE
:101AB000DA0681E062E041E00E94DA0681E063E05C
:101AC00041E00E94DA0680E063E041E00E94DA062D
:101AD00080E062E041E00E94DA0680E090E0A0E26F
:101AE000B2E48DAB9EABAFABB8AF6DA97EA98FA9A9
:101AF00098AD20E030E04AE753E40E941F02DC0189
:101B0000CB0189AB9AABABABBCAB69A97AA98BA96A
:101B10009CA920E030E040E85FE30E94790388233D
:101B20002CF481E090E098AB8FA73FC069A97AA917
:101B30008BA99CA920E03FEF4FE757E40E941903CF
:101B400018164CF56DA97EA98FA998AD20E030E05C
:101B500040E251E40E941F02DC01CB01BC01CD0137
:101B60000E944900DC01CB0198AB8FA70FC089E12F
:101B700090E09EA78DA78DA59EA50197F1F79EA742
:101B80008DA78FA598A9019798AB8FA78FA598A926
:101B9000009769F714C069A97AA98BA99CA90E942A
:101BA0004900DC01CB0198AB8FA78FA598A99CA712
:101BB0008BA78BA59CA50197F1F79CA78BA780E22B
:101BC0000E94560F80E20E94560F80E80E94560F36
:101BD00080E090E0A0E2B2E48FA398A7A9A7BAA7FB
:101BE0006FA178A589A59AA520E030E04AE753E4E3
:101BF0000E941F02DC01CB018BA39CA3ADA3BEA35B
:101C00006BA17CA18DA19EA120E030E040E85FE3C4
:101C10000E94790388232CF481E090E09AA389A3A1
:101C20003FC06BA17CA18DA19EA120E03FEF4FE7BB
:101C300057E40E94190318164CF56FA178A589A5E1
:101C40009AA520E030E040E251E40E941F02DC014E
:101C5000CB01BC01CD010E944900DC01CB019AA35C
:101C600089A30FC089E190E098A38F8F8F8D98A1F1
:101C70000197F1F798A38F8F89A19AA101979AA351
:101C800089A389A19AA1009769F714C06BA17CA1CF
:101C90008DA19EA10E944900DC01CB019AA389A3DA
:101CA00089A19AA19E8F8D8F8D8D9E8D0197F1F7C1
:101CB0009E8F8D8F80E00E94560F80EC0E94560F01
:101CC00080E090E0A0E2B2E4898F9A8FAB8FBC8F66
:101CD000698D7A8D8B8D9C8D20E030E04AE753E44E
:101CE0000E941F02DC01CB018D8B9E8BAF8BB88FC6
:101CF0006D897E898F89988D20E030E040E85FE330
:101D00000E94790388232CF481E090E09C8B8B8BDC
:101D10003FC06D897E898F89988D20E03FEF4FE726
:101D200057E40E94190318164CF5698D7A8D8B8D36
:101D30009C8D20E030E040E251E40E941F02DC0173
:101D4000CB01BC01CD010E944900DC01CB019C8B81
:101D50008B8B0FC089E190E09A8B898B89899A8956
:101D60000197F1F79A8B898B8B899C8901979C8BC2
:101D70008B8B8B899C89009769F714C06D897E894C
:101D80008F89988D0E944900DC01CB019C8B8B8B45
:101D90008B899C89988B8F878F8598890197F1F71C
:101DA000988B8F8780E00E94560F80E10E94560F2B
:101DB00080E090E0A0E0B0E48B879C87AD87BE8791
:101DC0006B857C858D859E8520E030E04AE753E475
:101DD0000E941F02DC01CB018F839887A987BA87F5
:101DE0006F81788589859A8520E030E040E85FE35F
:101DF0000E94790388232CF481E090E09E838D83F8
:101E00003FC06F81788589859A8520E03FEF4FE755
:101E100057E40E94190318164CF56B857C858D8557
:101E20009E8520E030E040E251E40E941F02DC0188
:101E3000CB01BC01CD010E944900DC01CB019E8396
:101E40008D830FC089E190E09C838B838B819C8183
:101E50000197F1F79C838B838D819E8101979E83EF
:101E60008D838D819E81009769F714C06F8178857D
:101E700089859A850E944900DC01CB019E838D8370
:101E80008D819E819A83898389819A810197F1F757
:101E90009A83898381E080937C00E8960FB6F8945A
:101EA000DEBF0FBECDBFCF91DF910895DF93CF93FB
:101EB000CDB7DEB7AB970FB6F894DEBF0FBECDBF80
:101EC0008BA780E063E040E00E9441088BA58295EB
:101ED0008F70982F917081E060E0492F0E94410837
:101EE0008BA5829586958770982F917081E061E02F
:101EF000492F0E9441088BA582958695869583700F
:101F0000982F917081E062E0492F0E9441088BA5D3
:101F1000982F991F9927991F81E063E0492F0E940C
:101F2000410880E062E041E00E94410880E090E0EA
:101F3000A0E8B0E48FA398A7A9A7BAA76FA178A536
:101F400089A59AA520E030E04AE753E40E941F02E9
:101F5000DC01CB018BA39CA3ADA3BEA36BA17CA191
:101F60008DA19EA120E030E040E85FE30E9479036C
:101F700088232CF481E090E09AA389A33FC06BA151
:101F80007CA18DA19EA120E03FEF4FE757E40E9486
:101F9000190318164CF56FA178A589A59AA520E01C
:101FA00030E040E251E40E941F02DC01CB01BC01A1
:101FB000CD010E944900DC01CB019AA389A30FC087
:101FC00089E190E098A38F8F8F8D98A10197F1F709
:101FD00098A38F8F89A19AA101979AA389A389A118
:101FE0009AA1009769F714C06BA17CA18DA19EA155
:101FF0000E944900DC01CB019AA389A389A19AA17F
:102000009E8F8D8F8D8D9E8D0197F1F79E8F8D8F79
:1020100080E062E040E00E94410880917C008823DB
:1020200009F4A2C08BA5982F917081E060E0492F40
:102030000E9441088BA58695982F917081E061E000
:10204000492F0E9441088BA586958695982F9170FF
:1020500081E062E0492F0E9441088BA58695869514
:102060008695982F917081E063E0492F0E94410886
:1020700080E062E041E00E94410880E090E0A0E85A
:10208000B0E4898F9A8FAB8FBC8F698D7A8D8B8DE1
:102090009C8D20E030E04AE753E40E941F02DC01FF
:1020A000CB018D8B9E8BAF8BB88F6D897E898F898D
:1020B000988D20E030E040E85FE30E9479038823B8
:1020C0002CF481E090E09C8B8B8B3FC06D897E89E6
:1020D0008F89988D20E03FEF4FE757E40E94190366
:1020E00018164CF5698D7A8D8B8D9C8D20E030E033
:1020F00040E251E40E941F02DC01CB01BC01CD0192
:102100000E944900DC01CB019C8B8B8B0FC089E1C5
:1021100090E09A8B898B89899A890197F1F79A8B3C
:10212000898B8B899C8901979C8B8B8B8B899C8954
:10213000009769F714C06D897E898F89988D0E94F8
:102140004900DC01CB019C8B8B8B8B899C89988B04
:102150008F878F8598890197F1F7988B8F8780E01B
:1021600062E040E00E94410880E090E0A0E8B0E436
:102170008B879C87AD87BE876B857C858D859E858B
:1021800020E030E04AE753E40E941F02DC01CB016B
:102190008F839887A987BA876F81788589859A8583
:1021A00020E030E040E85FE30E94790388232CF4CC
:1021B00081E090E09E838D833FC06F817885898523
:1021C0009A8520E03FEF4FE757E40E941903181665
:1021D0004CF56B857C858D859E8520E030E040E266
:1021E00051E40E941F02DC01CB01BC01CD010E9421
:1021F0004900DC01CB019E838D830FC089E190E013
:102200009C838B838B819C810197F1F79C838B83CB
:102210008D819E8101979E838D838D819E81009704
:1022200069F714C06F81788589859A850E94490075
:10223000DC01CB019E838D838D819E819A8389836E
:1022400089819A810197F1F79A838983AB960FB6BA
:10225000F894DEBF0FBECDBFCF91DF910895DF931D
:10226000CF93CDB7DEB7E9970FB6F894DEBF0FBEB8
:10227000CDBF89AF80E063E041E00E94410889ADB5
:1022800082958F70982F917081E060E0492F0E94B5
:10229000410889AD829586958770982F917081E06D
:1022A00061E0492F0E94410889AD82958695869507
:1022B0008370982F917081E062E0492F0E9441085D
:1022C00089AD982F991F9927991F81E063E0492FC5
:1022D0000E94410880E062E041E00E94410880E005
:1022E00090E0A0E0B0E48DAB9EABAFABB8AF6DA912
:1022F0007EA98FA998AD20E030E04AE753E40E9420
:102300001F02DC01CB0189AB9AABABABBCAB69A9BB
:102310007AA98BA99CA920E030E040E85FE30E9405
:10232000790388232CF481E090E098AB8FA73FC01D
:1023300069A97AA98BA99CA920E03FEF4FE757E450
:102340000E94190318164CF56DA97EA98FA998ADA6
:1023500020E030E040E251E40E941F02DC01CB01AA
:10236000BC01CD010E944900DC01CB0198AB8FA7D5
:102370000FC089E190E09EA78DA78DA59EA501972E
:10238000F1F79EA78DA78FA598A9019798AB8FA766
:102390008FA598A9009769F714C069A97AA98BA994
:1023A0009CA90E944900DC01CB0198AB8FA78FA5A7
:1023B00098A99CA78BA78BA59CA50197F1F79CA733
:1023C0008BA780E062E040E00E94410880E090E05E
:1023D000A0E0B0E48FA398A7A9A7BAA76FA178A59A
:1023E00089A59AA520E030E04AE753E40E941F0245
:1023F000DC01CB018BA39CA3ADA3BEA36BA17CA1ED
:102400008DA19EA120E030E040E85FE30E947903C7
:1024100088232CF481E090E09AA389A33FC06BA1AC
:102420007CA18DA19EA120E03FEF4FE757E40E94E1
:10243000190318164CF56FA178A589A59AA520E077
:1024400030E040E251E40E941F02DC01CB01BC01FC
:10245000CD010E944900DC01CB019AA389A30FC0E2
:1024600089E190E098A38F8F8F8D98A10197F1F764
:1024700098A38F8F89A19AA101979AA389A389A173
:102480009AA1009769F714C06BA17CA18DA19EA1B0
:102490000E944900DC01CB019AA389A389A19AA1DA
:1024A0009E8F8D8F8D8D9E8D0197F1F79E8F8D8FD5
:1024B00089AD982F917081E060E0492F0E9441081A
:1024C00089AD8695982F917081E061E0492F0E9437
:1024D000410889AD86958695982F917081E062E0DC
:1024E000492F0E94410889AD869586958695982F3B
:1024F000917081E063E0492F0E94410880E062E032
:1025000041E00E94410880E090E0A0E0B0E4898FC3
:102510009A8FAB8FBC8F698D7A8D8B8D9C8D20E0CF
:1025200030E04AE753E40E941F02DC01CB018D8BAF
:102530009E8BAF8BB88F6D897E898F89988D20E0B7
:1025400030E040E85FE30E94790388232CF481E0C7
:1025500090E09C8B8B8B3FC06D897E898F89988D95
:1025600020E03FEF4FE757E40E94190318164CF59F
:10257000698D7A8D8B8D9C8D20E030E040E251E4B6
:102580000E941F02DC01CB01BC01CD010E94490069
:10259000DC01CB019C8B8B8B0FC089E190E09A8B87
:1025A000898B89899A890197F1F79A8B898B8B8915
:1025B0009C8901979C8B8B8B8B899C89009769F7F1
:1025C00014C06D897E898F89988D0E944900DC0135
:1025D000CB019C8B8B8B8B899C89988B8F878F856C
:1025E00098890197F1F7988B8F8780E062E040E04F
:1025F0000E94410880E090E0A0E0B0E48B879C87D7
:10260000AD87BE876B857C858D859E8520E030E01B
:102610004AE753E40E941F02DC01CB018F839887B5
:10262000A987BA876F81788589859A8520E030E00F
:1026300040E85FE30E94790388232CF481E090E076
:102640009E838D833FC06F81788589859A8520E040
:102650003FEF4FE757E40E94190318164CF56B85BE
:102660007C858D859E8520E030E040E251E40E942B
:102670001F02DC01CB01BC01CD010E944900DC013D
:10268000CB019E838D830FC089E190E09C838B8377
:102690008B819C810197F1F79C838B838D819E8137
:1026A00001979E838D838D819E81009769F714C069
:1026B0006F81788589859A850E944900DC01CB016C
:1026C0009E838D838D819E819A83898389819A815E
:1026D0000197F1F79A838983E9960FB6F894DEBFE4
:1026E0000FBECDBFCF91DF910895DF93CF9300D080
:1026F00000D00F92CDB7DEB78A836B838A81282FF3
:1027000030E03D832C838C819D8181309105C9F01F
:102710002C813D81223031052CF48C819D810097E4
:1027200061F01AC02C813D812230310571F08C811D
:102730009D818330910569F00FC08B81805889831A
:102740000BC08B818054898307C08B818C56898311
:1027500003C08B818C52898389810E94560F0F9010
:102760000F900F900F900F90CF91DF910895DF930E
:10277000CF9300D00F92CDB7DEB79B838A831982A7
:102780000EC08981282F30E08A819B81FC01E20FF5
:10279000F31F80810E942F1189818F5F8983898136
:1027A000282F30E08A819B81FC01E20FF31F80819A
:1027B000882339F70F900F900F90CF91DF910895F4
:1027C000DF93CF93CDB7DEB781E00E94560FCF9154
:1027D000DF910895DF93CF93CDB7DEB762970FB641
:1027E000F894DEBF0FBECDBF9A8B898B89899A89F9
:1027F0009E012F5F3F4FB9014AE050E00E94411512
:10280000CE0101960E94B71362960FB6F894DEBF10
:102810000FBECDBFCF91DF910895EF92FF920F933E
:10282000DF93CF93CDB7DEB780E067E041E00E9451
:10283000FF0C0E94450D80E061E00E9475130E942C
:10284000FE058DE790E00E94C30A80917D008233EF
:1028500081F480917E00873361F48FE790E021E876
:1028600030E049E850E0B9010E94E40A8093950005
:10287000E8CF80917D00833321F780917E00813302
:1028800001F780919500813081F58FE790E00E94FB
:10289000C30A81E990E064E00E943A0C80919100C3
:1028A000813479F680919200813459F680919300B9
:1028B000803339F680919400803319F680E067E028
:1028C0000E94130D80E060E00E94751380E690E0A6
:1028D0000E94B713E1E9F0E083E361E340E321E321
:1028E00001E07F010E94640BACCF8DE790E00E9475
:1028F000C30A81E990E064E00E943A0C8FE10E94F3
:10290000B00B9FCF97FB092E07260AD077FD04D086
:102910000CD006D000201AF4709561957F4F089571
:10292000F6F7909581959F4F0895AA1BBB1B51E127
:1029300007C0AA1FBB1FA617B70710F0A61BB70B2F
:10294000881F991F5A95A9F780959095BC01CD01D4
:1029500008952F923F924F925F926F927F928F9243
:102960009F92AF92BF92CF92DF92EF92FF920F931E
:102970001F93CF93DF93CDB7DEB7CA1BDB0B0FB628
:10298000F894DEBF0FBECDBF09942A8839884888E5
:102990005F846E847D848C849B84AA84B984C8847B
:1029A000DF80EE80FD800C811B81AA81B981CE0F72
:1029B000D11D0FB6F894DEBF0FBECDBFED01089557
:1029C000A0E0B0E0E6EEF4E10C94B114EC01A880D4
:1029D000B980CA80DB80A114B104C104D10441F4E0
:1029E00084E2A82E89EDB82E8BE5C82E87E0D82E7C
:1029F000C601B5012DE133EF41E050E00E94911591
:102A000027EA31E440E050E00E9472157B018C011E
:102A1000C601B5012DE133EF41E050E00E94911570
:102A2000CA01B9012CEE34EF4FEF5FEF0E9472152F
:102A30006E0D7F1D801F911F97FF04C06150704075
:102A400080409048688379838A839B839B013F778A
:102A5000C901CDB7DEB7EAE00C94CD140E94E014B2
:102A6000089587E790E00E94E0140895A0E0B0E0A8
:102A70008093770090937800A0937900B0937A00C8
:102A80000895FB019F01E8944230C4F04532B4F44C
:102A90004A3029F497FB1EF4909581959F4F642F3F
:102AA00077270E949514805D8A330CF0895D8193AD
:102AB000CB010097A1F716F45DE251931082C90192
:102AC0000C946215DC01FC01672F71917723E1F70B
:102AD000329704C07C916D9370836291AE17BF07EB
:102AE000C8F30895629FD001739FF001829FE00DAB
:102AF000F11D649FE00DF11D929FF00D839FF00D7D
:102B0000749FF00D659FF00D9927729FB00DE11D28
:102B1000F91F639FB00DE11DF91FBD01CF01112405
:102B2000089597FB092E05260ED057FD04D014D02A
:102B30000AD0001C38F450954095309521953F4FB0
:102B40004F4F5F4F0895F6F790958095709561957A
:102B50007F4F8F4F9F4F0895A1E21A2EAA1BBB1BD8
:102B6000FD010DC0AA1FBB1FEE1FFF1FA217B30759
:102B7000E407F50720F0A21BB30BE40BF50B661F6F
:102B8000771F881F991F1A9469F760957095809533
:102B900090959B01AC01BD01CF010895F894FFCF42
:102BA000436F6E67726174756C6174696F6E00005B
:0C2BB00000000000000000010000000018
:00000001FF
